S123020083BDFED30ECE0400BD03E4BDF65BBDF7E55E3701307EFE83BDFED30ECE041ABD94
S123022003E4BD03DB814726EECE0492BD03DBA700810D27030820F4CE0492A600814427EC
S123024042814D2774814826037E02D9815326037E0345815026037E031E815426037E03C9
S12302606D815826037E0396815526037E030E8156CE0400BD03E47E0217CE0429BD03E4E3
S12302807E021708BD039FB702B0BD039FB702B1BD039FB702B2BD039FB702B3BD039FB77F
S12302A002B4BD039F8A80B702B5BDF65BBDF7E50101010101817E021708BD039F7E02E51D
S12302C0B702D0BD039FB702D1BD039FB702D23FD308208F000A7E0217BDE390BDE399BD2E
S12302E0E39D7E021781D327D781DC27D381C327CF81CC27CB81E327C781EC27C381F3277D
S1230300BF81FC27BBCE0448BD03E47E02D9A601810027053F457E02173F557E0217A60163
S1230320BD03B0B705135FF70512FE05123FA6003683CE046532BD03D04FA700CE0465BD77
S123034003E47E02170E7F00117F00103F458F000AD6109611835D260286FFCE0465BD03C0
S1230360D04FA700CE0465BD03E47E021708FF0512CE0492FF0514FE0512BD039FFF05121D
S1230380FE0514A70008FF051481FF26EA0E3F720492837E02170ECE041FBD03E43F3AA6BA
S12303A0008D0D484848481608A6008D031B0839804124028B078B0A3936840F8D091632E1
S12303C0444444448D01398B30813923028B0739BD03B9A7000817A70008395F0FBDE7D0D4
S12303E0847F0E390F5FA6004D2709847FBDE75D0820F10E39C60DE70008C60AE700083900
S12304000D0A476F74414865726F2056657273696F6E20312E30300D0A000D0A3E20004710
S12304206F6F646279650D0A000D0A4552524F523A20436F6D6D616E64206E6F7420666FFF
S1230440756E642E070D0A000D0A4552524F523A20496E76616C696420436F6D6D616E6464
S11504602E070D0A0051574552545955494F505B5D0059
S9030000FC
